:020000040800F2
:10000000380A0020D5000008C72500088F1F000807
:1000100000000000000000000000000000000000E0
:100020000000000000000000000000002D2B000870
:100030000000000000000000C92500082F2B000868
:10004000E7000008E7000008E7000008E7000008F4
:10005000E7000008E7000008E7000008F50C0008CA
:1000600000000000E7000008F5070008000000009D
:10007000E7000008E7000008E700000800000000B3
:10008000E7000008E700000800000000E7000008A3
:1000900000000000E7000008E7000008E700000893
:1000A0000000000015280008E7000008A12D000846
:1000B000A32D0008E7000008E7000008000000008A
:1000C0000348854600F0C4F9004800478D33000816
:1000D000380A00200448804704480047FEE7FEE74E
:1000E000FEE7FEE7FEE7FEE7492B0008C100000837
:1000F00030B50B46014600202022012409E00D46C0
:10010000D5409D4205D31D469540491B2546954047
:1001100040191546521E002DF1DC30BD03460B433D
:100120009B0703D009E008C9121F08C0042AFAD2AD
:1001300003E00B780370401C491C521EF9D2704733
:10014000D2B201E00270401C491EFBD2704700226F
:10015000F6E710B513460A4604461946FFF7F0FFC6
:10016000204610BD0321001D401E037812021A43D1
:10017000491EF9D510467047F8B502464A40D40FDB
:1001800042004B0052085B089A4202D202460846DF
:1001900011464A0023D0C30D4A00DDB2120EAD1A3B
:1001A000202D35DA49020126490AF6058A19002C64
:1001B00000D0524220214F1B1146B9402A4110184D
:1001C000C20D9A4221D0002C17D0012D08DCDA058F
:1001D000801AD20F8019D207DBB200F0FFF8F8BD09
:1001E000DA05801A012340001B06C01880185A4205
:1001F0008018CA0F1043490007E04908C20711439D
:10020000DA05801A80194008801800F0DFF8F8BD80
:1002100061000122511A001BF7E70122D207514069
:10022000AAE70122D2075040A6E7024670B54A402D
:10023000D30FDB0740002DD04A002AD0010E140E48
:10024000000212020919400A520A8418E501044604
:100250005443000A120A2E045043A4194219200CD8
:10026000C543AA18120C0125AD03521C52191204E1
:100270007F39240400D0521C104301D44000491E91
:10028000C2B20C06C0092018401C4008802A02D0C7
:1002900003E0002070BD40084000002900DA002083
:1002A000184370BD70B502464A40D50F40004A0061
:1002B000ED0740085208002814D0002A12D0C40DBF
:1002C000D30D41020120C0055202490A520AE41A24
:1002D000091812187D34914201D3641C00E04900D2
:1002E000002C01DA002070BD0023914201D3891A4D
:1002F0000343400849000028F7D100290AD0914261
:1003000002D10121C90705E0914201D2012101E09A
:100310000121C943E005C018401900F057F870BD2D
:10032000C217C10F504010B54018CA0796230021CC
:1003300000F054F810BD10B500229623114600F0CD
:100340004DF810BD410040020122400AD205090EBD
:1003500080187F2901DA00207047962903DC962255
:10036000511AC8407047963988407047F0B51FB49D
:100370000646002082B005464024019100901BE013
:10038000019922460F46304600F084F8049A059BF6
:10039000801A994110D310461946224600F06AF897
:1003A000361A8F410197224601200021009F00F05C
:1003B00061F838184D4100902046641E0028DFDCAB
:1003C000019B00982946324607B0F0BD002904DAA7
:1003D000401C490001D140084000704770B400241F
:1003E000050C05D11024000402D1002921D01124CC
:1003F000050E01D100020834050F01D10001241DB2
:10040000850F01D18000A41C002801DB4000641C82
:10041000002908D020252E1B0D46F540A14000D014
:1004200001212943084301061B1B000ADB1D02D5DD
:10043000002070BC7047DB05181880180029F8DA16
:10044000401C4900F5D170BC4008400070470000D6
:10045000064C0125064E05E0E36807CC2B430C3C17
:1004600098471034B442F7D3FFF72EFE3C3400080F
:100470005C34000810B5202A04DB0146203A914084
:10048000002010BD914020239C1A0346E3401943ED
:10049000904010BD10B5202A04DB0846203AD04019
:1004A000002110BD0B46D340D0402024A21A914019
:1004B0000843194610BD70B58C180578401C6B07B1
:1004C0005B0F01D10378401C2A1106D10278401C31
:1004D00003E006780E70401C491C5B1EF9D12B0707
:1004E00005D40023521E0DD40B70491CFAE7037883
:1004F000401CCB1A921C03E01D780D70491C5B1C3C
:10050000521EF9D5A142D8D3002070BDFEB50024FB
:1005100000945549019400F0F7FB544D052168798A
:10052000401CC0B2FFF7E4FD6971002904D14E48B8
:100530000C213830FFF70BFE4B4800F073FC0746E8
:1005400001464BA002F02EFC474E4CA0727A317847
:10055000736902F027FC454810304088B84222D920
:100560004B4A7069904209D9404933781031097873
:100570008B4203D801207261009001E0401C706141
:10058000707A10280FD139483178103000788142C4
:1005900009D8706902F09EFE3178334A490038323A
:1005A000535AC018505231484079042830D12F484E
:1005B0002D4E1030BC3605781038817910E02A4A6B
:1005C0000C2048434432831860001A5A375ABF1A25
:1005D000254A3832125ABF183752641C1A52E4B2F4
:1005E000A542ECD2491CC8B2204C0A21FFF780FD7D
:1005F000A171002007E04100715AA289914200D9FF
:10060000A181401CC0B28542F5D2A089C008A0815A
:10061000164C20A0A18902F0C5FB2246103290881A
:10062000A189884201D201200190019900980843D4
:100630000021002803D00120E071E18108E0E07989
:1006400000280AD0D288E089824205D9401CE08186
:1006500001F0ACFF12A003E0E17101F09DFF12A0D8
:1006600002F0A0FBFEBD0000E80100200C0000200D
:1006700072616E67653A25640D0A0000723A25645E
:1006800020763A2564206D61673A25640D0A0000E2
:10069000102700007369674D61783A25640D0A00E0
:1006A0004F4E0D0A000000004F46460D0A000000A4
:1006B00010B501F055FF01F06FFF02F05BFA10BDBD
:1006C000F8B50A4600280FD111488178831D461CD1
:1006D0009C880546002908D0491E81702146104695
:1006E000FFF706FD31702970F8BD21461046FFF76F
:1006F000FFFC297030780F462146401CFFF7F8FCBC
:10070000B94201D001F014FF28783070F8BD000024
:100710000000002008B5002069460880022000F093
:10072000A5FA0F2252026721402001F07BFE022031
:1007300000F09CFA6A466721402001F06FFC02201D
:1007400000F094FA792292016721402001F06AFEBC
:1007500008BD0000F8B5234C1421234F21803988AF
:1007600061801521A18021492246D1801721218154
:100770007988002049BA1E4D51810323014620315A
:100780009E00A15300214200D219928802E0520833
:10079000491C89B2AA42FAD8002803D0012801D006
:1007A000022801D10A3189B2C902114332195B1CF6
:1007B000401C80B251809BB21028DFD300219800EA
:1007C0002152001941800D4607E009194A88C1B23B
:1007D000402001F027FE6D1CADB2A900605A002830
:1007E000F3D1F8BD140300201C010020041B0000FD
:1007F000FF07000010B50248806D00F091FB10BDAE
:100800006803002030B5056C0124AC40C56B6C60FA
:10081000046863604368102B036803D09960006824
:10082000C26030BD9A600068C16030BDF8B51E4638
:10083000002829D0002E27D07E235A43134BD718E7
:100840003C4640343288A38F891A8B4200DD0B4628
:10085000618F9DB2CB1911182A461846FFF75EFC2E
:10086000608F401960873188681E08183080A08F1B
:10087000401B0004000CA08706D1052060373875A6
:10088000034840880838A087F8BD00005C010020BC
:1008900006000020F7B5044682B0002069460880B3
:1008A0000190002C05D00399002902D00499002959
:1008B00002D0002005B0F0BD04982E497E2250439E
:1008C00047183E4660363D46403549E0307D0300DE
:1008D00002F078FA090611161B20272E363D4D002E
:1008E000605CAA2838D100206887625C0121698792
:1008F000C255317530E0605C049900F00FF92BE0CF
:10090000605C049900F046F926E0605C049900F010
:1009100065F921E06B462046049A0399FFF786FFAC
:100920001AE0688F615C421C6A87C155062005E0A9
:10093000688F615C421C6A87C155072030750BE0E7
:10094000688F615C421C6A87C1550820F6E7605CCD
:10095000049900F05FF9019069460888401C0880FE
:100960006846018803988142B0D30198A2E700202D
:10097000E4E700005C01002010B500247E2112484D
:10098000FFF7E5FB06211148FFF7E1FB0F4800F0F8
:10099000DBF9401C03D10E490EA001F01DFF0B48EE
:1009A000094943881846083880B27E2262435218AB
:1009B0004032641C24069087240EF6D05804000CA4
:1009C00002F012F810BD00005C01002006000020BB
:1009D000310200002E2E5C2E2E5C4170705C636F25
:1009E0006D6D6F6E5C7372635C6461746170726F65
:1009F000636573732E630000F8B5124F124E002525
:100A0000002414E06000C019415D0029FCD0002DD5
:100A100016D070882146E82251430C4A7388891801
:100A20000A182946204600F015F8641CE4B208486C
:100A300000788442E6D36D1CEDB2022DE0D3F8BD00
:100A40000020E7E7440100200600002010040020F9
:100A500040010020FFB57D2481B016460D460746B3
:100A6000E40001F049FD002F1BD1022D19D2002E08
:100A700017D03A4630460499FFF70CFF2049002270
:100A80004A55002810D01F4E1F4D3078294640315E
:100A900000280BD0012811D0022823D0032822D10E
:100AA00004E01AA002F07EF905B0F0BDC98E104630
:100AB000C9B2FFF705FEFF24F53414E00C8F11498D
:100AC000891FC8780F1D002803D0401EC8703C80C5
:100AD00005E03888401CA04201D001F029FD3C808F
:100AE0007D2400E00F24204601F028FD71880029B4
:100AF000DAD00839281D89B2FFF708FDD4E70000D5
:100B000044010020060000205C0100204572726F45
:100B1000722070617261210D0A000000F0B51B4A5D
:100B20001B4B14787E224A43D61807463546334677
:100B30002037603502094033002C06D0012C15D037
:100B4000022C18D0032C18D108E0032A0AD0072A57
:100B500008D012E00107C90DD98611E0022A01D0A0
:100B6000062A0AD10129F5D9F8B2F3E70B2A07D0F2
:100B70000F2A05D001E0042A02D000202875F0BD1C
:100B8000598F4A1C5A8788550220F7E70600002033
:100B90005C01002010B5104B7E240E4A6143CB1837
:100BA000127819464031002A05D0012A08D0022ABD
:100BB00008D0032A06D1CA8EC4081219CA8601E0D9
:100BC00002020A874A8F541C4C87D054032060339A
:100BD000187510BD060000205C01002010B50B4AFE
:100BE0007E2413780A4A61438A1811464031002B4B
:100BF00004D0012B02D10B8F1B180B874B8F5C1C71
:100C00004C87985404206032107510BD06000020F7
:100C10005C01002070B506467E20124A48438518C4
:100C2000002374204355552E01D0002070BD0E4A7C
:100C30007E230C4C4B4310781C194034002802D002
:100C4000012809D104E09088E38E401E834203D13D
:100C5000002901D1FFF75EFD608F411C6187465579
:100C6000012070BD5C0100200600002010B500F0DE
:100C700027FA10BDF8B5002469460C8015A002F0D3
:100C800091F8194E0CE0C1B26A46402001F0C6F955
:100C900068460288715B154802F084F8641CA4B2AF
:100CA000A500705B0028EED10024114E0CE0C1B20B
:100CB0006A46402001F0B2F968460288715B0B4831
:100CC00002F070F8641CA4B2A500705B0028EED19D
:100CD000F8BD000072616461722069632076616C06
:100CE00075653A0D0A000000300000203C2700081E
:100CF0001403002003494020CA68904301D14020DA
:100D0000C860704700180240F8B50D4607001AD0B9
:100D1000002D18D0002420460C214843395C2A19A4
:100D20005172C61970782855301DFFF71BFA00BAAA
:100D3000000AF17900020843A1004919641CA4B219
:100D40004861092CE7D3F8BD70B51A4D04000FD0E7
:100D500001F05EFC2070014617A002F023F8207815
:100D600000280AD0022818D0032803D016A011E0CA
:100D7000284670BD01F08EFC01E001F073FC80009C
:100D80000830608081B217A002F00CF860887428E7
:100D900006D918A002F006F8EAE701F055FCEFE7E3
:100DA00001F06CFCA08001461AA001F0FBFF0020BE
:100DB00070BD0000FFFFFFFF6461746154797065CE
:100DC0003A2025640D0A00004572726F723A207550
:100DD0006E737570706F7274206461746154797091
:100DE000650D0A00646174614C656E3A2025640DDE
:100DF0000A0000004572726F723A20646174614C9F
:100E0000656E20697320746F6F206C6F6E670D0ABA
:100E10000000000063686972704E756D3A202564A9
:100E20000D0A0000F8B501460678002540692C46F9
:100E30002A46844600283ED00120731E0F5C9F4244
:100E400005D101231A4380004018456903E0401C86
:100E5000C0B20928F2D30120731C0F5C9F4205D158
:100E600002231A4380004018446903E0401CC0B2CA
:100E70000928F2D3D00700D10025900700D4002420
:100E800060464000401B001B4000FFF749FA074640
:100E9000601BFFF745FA3946FFF704FA044630466F
:100EA000FFF749FA2146FFF767F90349FFF7BDF954
:100EB000FFF748FA80B2F8BD00000C4270B500247C
:100EC000024620325178022903D004218163012493
:100ED00022E001680B680E25AB430B6001680B68CC
:100EE0005B085B000B600D4B0168994201D1012149
:100EF00007E00A4B1433994201D1102101E0FF2190
:100F00000131064B083B59600121517000211170DD
:100F1000416B002900D08847204670BD0800024080
:100F2000F0B4C16B0C6801680B680426056C32468E
:100F3000AA4022421AD05A0718D50A68920602D44B
:100F40000A68B2430A602A4A0168914201D1042129
:100F500007E0274A1432914201D1402101E00121EA
:100F60008902234A083A5160C16A25E00227AF404E
:100F70000246274001262032002F21D09F071FD58F
:100F80000B689B0604D40B680A24A3430B605670BD
:100F9000174B0168994201D1022107E0144B143329
:100FA000994201D1202101E001214902104B083B67
:100FB000596000211170816A002916D0F0BC0847E1
:100FC0000827AF40274210D01B070ED50B680E2410
:100FD000A3430B60036C31469940C36B5960866331
:100FE000567000211170016BE6E7F0BC70470000FD
:100FF0000800024070B5040026D01448256814216A
:101000002818FFF775F8800020641148E06302217A
:101010002046203041702A680E49A3680A40616862
:1010200026691943E3683343194363691943A36984
:101030001943E3691943114329600021A163012287
:1010400042700170084670BD012070BDF8FFFDBF01
:10105000000002400FC0FFFFF8B504468C46203068
:1010600001780025012909D0012606704778002162
:10107000012F05D0017002252846F8BD0220F8BDD9
:1010800002274770A1632068016849084900016090
:1010900061462046FFF7B6FBE06A00282068016839
:1010A00001D00E2205E0042291430160206801680E
:1010B0000A22114301602068016831430160DBE7C7
:1010C00070B5044600F09EF80546601C02D0044846
:1010D0004068241800F096F8401BA042FAD370BD77
:1010E0004C010020F0B500227BE001249440A4468E
:1010F000234075D04C68022C01D0122C0CD1D4089E
:10110000A40027183D6A5407E40E0F26A640B543F5
:101110000E69A6402E433E62066855000324AC408B
:101120000F79A643BF07BF0FAF40374307604E6834
:10113000012E05D0022E03D0112E01D0122E0ED179
:101140008668CF68A643AF403743876047686646E6
:10115000B7430E79F606F60F96403E434660C668E2
:10116000A6438C68AC403443C4604C68E40037D577
:1011700095081F4CAD002F193D6E9407E40E0F2605
:10118000A640B54305263607B04201D1002605E04A
:10119000184EB04201D1012600E00226A6402E439F
:1011A000134D3E66124E803634684F689C43FF03F1
:1011B00000D51C43346074684F689C43BF0300D55E
:1011C0001C4374602C684E689C43F60200D51C4397
:1011D0002C606C684E689C43B60200D51C436C6062
:1011E000521C0B681C46D44000D07EE7F0BD0000C6
:1011F0000018024000040050002A01D081617047AD
:101200008162704701488068704700004C010020EF
:10121000F8B504001BD027462037787E002803D17C
:101220003876204600F038FA242078762068016865
:1012300049084900016000F0E9FA0546444E60683B
:10124000B04201D8434800E04348854201D2012022
:10125000F8BD42492846FEF74BFF21684A689209CB
:10126000920102434A603A4962688A4206D9FF21E4
:101270002D3148437D21C900FEF73AFF2168401C0B
:101280000A6A9209920110430862314866688642F0
:101290000AD87100681EFEF72BFF401C0005000DE8
:1012A000042821D204201FE0A068009000283DD02F
:1012B000314619204143681EFEF71AFF284940189D
:1012C00000053AD00098002839D019203146414312
:1012D000681EFEF70DFF401C00050121000D89036B
:1012E00040180121C90308432168CA691D4B1A40EF
:1012F0001043C861A169E069014320680268C02306
:101300009A431143016020688168FE229143E2689C
:1013100011438160206801680122114301600020AF
:10132000E06320217976E062B876F8BD700031186C
:10133000681EFEF7DDFE401CC2E70120D4E7700006
:101340003118681EFEF7D4FE401C0005000DC8E7EA
:10135000A086010080841E0000093D0040420F006D
:10136000014000000030FFFFFFB583B004460C9F32
:10137000FFF748FF264605462036707E20287AD1A2
:10138000192301227A492046009500F07CFF0028AD
:10139000F5D1307E01286ED00121317620680268B7
:1013A000D20702D102680A43026020680168012264
:1013B000D20291430160222070764020B076002056
:1013C000E06327620D98E084E08CA0846948A06205
:1013D0000E980090019504A90EC9204600F05EFE0B
:1013E00000287DD1A08C01277F0200280DD0012884
:1013F00013D00228206801681DD07A0011430160D3
:101400002068416980690090A5E020684169816990
:1014100000910168394301609DE020680268012164
:1014200089028A43026072B620684169816900912D
:10143000016839430CE00122D2021143016072B607
:1014400020684169816900910168012292029143FB
:10145000016062B67FE0032856D801280CD00E9BAD
:101460000228009514D000224349204600F00BFFCB
:10147000002850D115E078E02A4620460E9900F069
:101480007BFF002847D120680069216A087059E075
:1014900000223949204600F0F6FE00283BD172B602
:1014A0001CE020680168012292029143016072B63B
:1014B00020680069216A0870206A401C2062A08CA4
:1014C000401EA084E08C401EE084009500222A4942
:1014D00020460E9B00F0D7FE00281CD1206800E0BB
:1014E00019E001683943016020680069216A0870C9
:1014F000206A401C2062A18C491EA184E18C491EF7
:10150000E18462B621681BE02A4620460E9900F06D
:1015100033FF002802D0012007B0F0BD2068006929
:10152000216A0870206A401C2062A18C491EA18497
:10153000E18C491EE18421684A69D24352070AD4EA
:1015400009690170206A401C2062A08C401EA084A2
:10155000E08C401EE084A08C002800D07BE7202097
:1015600070760020B0763076D6E70220D4E700000F
:10157000020010000000FFFF04000100FFB583B06F
:1015800004460C9FFFF73EFE254606462035687E42
:1015900020287AD1192301223D492046009600F0E7
:1015A00072FE002871D1287E01286ED00121297693
:1015B00020680268D20702D102680A4302602068EC
:1015C00001680122D2029143016021206876402007
:1015D000A8760020E06327620D98E084E08CA08468
:1015E0002C48A0620E980090019604A90EC92046CE
:1015F00000F0CCFD01277F0200280ED130E03246FA
:1016000020460E9900F0E7FE002809D0E06B042880
:1016100003D12068016839430160012007B0F0BDA3
:10162000206A216800780861226A521C2262A08C1C
:10163000401E80B2A084E18C491EE18421684B6980
:10164000DB435B070CD400280DD010780861206ABA
:10165000401C2062A08C401EA084E08C401EE084D0
:10166000A08C0028CBD1324620460E9900F0E4FD34
:101670000028CBD1206801683943016020206876BA
:101680000020A8762876C9E7FFE70220C6E7000019
:10169000020010000000FFFFF0B587B0142168467B
:1016A000FEF755FD174CE06B01256D052843E063FF
:1016B000E06B28400590616B202001436163616B02
:1016C00001400591616B01436163616B012601403B
:1016D0000591022012216A4643C20C2781C2694645
:1016E0000948FFF7FFFC6946074804970096FFF793
:1016F000F9FCE06A2843E062E06AA843E06207B0D0
:10170000F0BD0000001002400014005070B504004D
:101710000FD021681048086021681048086003CC89
:1017200041602068083C21688860FFF76BFD054632
:1017300008E0012070BDFFF765FD401B302801D98E
:10174000032070BD2068C0680028F4D121680448D7
:101750000860002070BD0000CCCC00005555000092
:10176000AAAA00000068024901600020704700003A
:10177000AAAA0000024881684268891881607047FF
:101780004C01002010B50024032000F009F80028C7
:1017900001D0012401E000F027F8204610BD000030
:1017A00070B50F4E002471680546002915D07D20C4
:1017B000C000FEF79DFC01460A480068FEF798FC51
:1017C00000F034FB002808D1042D06D2002229465F
:1017D000401E00F017F8356000E00124204670BD7F
:1017E0004C0100204801002070470000002805DB64
:1017F000C106C90E012088400149086070470000F9
:1018000000E100E010B501F0EBFA10BD0648074911
:1018100000688968064A4904490F8900515CC90675
:10182000C90EC84070470000480100200010024067
:101830001C34000810B5016E01A001F0B3FA10BD10
:10184000687370692D3E4572726F72436F646520D4
:101850003D20256420000000F8B504460068426879
:101860008168C9434B0606D5CB0704D1D3435B0639
:1018700001D4E16C05E08B0706D4D3431B0603D4E7
:10188000216D20468847F8BD8B0601D54B06FAD45A
:10189000D3439B06F7D423464D064033002D09DB86
:1018A0005D7F032D3DD0256E042635432566C56832
:1018B000856800958E0601214025002E07DB266EE7
:1018C0000E432666866800960668AE430660206E64
:1018D0000028D8D020684668E027BE434660597784
:1018E000900722D020684168890889004160A06D76
:1018F000104E002808D04663A06DFFF7DFFA0028DD
:1019000002D0206E28432066606D0028BBD046635D
:10191000606DFFF7D3FA0028B5D0206E284320660B
:10192000F8BDC16880680090F8BD2046FFF782FFCF
:10193000F8BD000025280008F8B5040007D00026EF
:1019400025464035A662687F002802D005E00120C8
:10195000F8BD2E77204600F047F802226A7720680B
:1019600001684023994301600723E0681B02984205
:1019700001D9002101E0012109030F273F02B842EC
:1019800002D0984200D0A662276B002F05D1984262
:1019900001D9226301E001202063A26860686369C5
:1019A000104322691A4310430123A2695B021A40C3
:1019B0001043E2691043226A1043A26A104322686E
:1019C0001060626B606AA36910431B0C0427E26815
:1019D0003B401A43104308432168486026660120B3
:1019E00068770020F8BD0000F0B50546006848495A
:1019F00087B088427ED1474C606B012738436063D3
:101A0000606B38400590606B38436063606B3840B2
:101A10000590606B38436063606B38400590606B85
:101A200038436063606B384005903A484030006846
:101A30008A14384910434031086008680026104075
:101A400005900220009001900290039005206946C5
:101A500004960007FFF746FB4020009005206946EA
:101A600004960007FFF73EFB04200090052069461E
:101A700004960007FFF736FB10200090052069460A
:101A800004960007FFF72EFBA06B3843A063A06B02
:101A9000384005901F48403000681E4938434031A7
:101AA000086008681D4C384005901B48072141C458
:101AB000802026606060E8680902083C884202D8FD
:101AC0002661666104E0FF200130206180006061D2
:101AD00001204003A661E0611048FFF78BFA0E4831
:101AE0001C38C169032212039143C161C1691143CA
:101AF000C16100E009E0AC65012211460A2065627F
:101B0000FFF780FE0A20FFF771FE07B0F0BD00006E
:101B100000300140001002401C000240CC030020B5
:101B2000F8B505468368002640350446002B03D1EE
:101B30006068C71FFD3F09D0287F01280ED001270C
:101B40002F77687F01280BD0022670E00420687789
:101B500013460A46204600F09DF8F8BD0220F8BD65
:101B6000002921D0002A1FD0042068770020206699
:101B70002164AA80EA80E0642065A087E0870121D3
:101B8000C9038B4204D121680A685B109A430A603A
:101B900007220123E16812021B03914221684A686F
:101BA00004D99A434A6014E0012640E01A434A608F
:101BB000A16D01224969920291420AD121684A68C5
:101BC0009A434A60E988C907E9881DD04908491C39
:101BD000E980A26D1849D162A26D18499162A26D87
:101BE00017491163A16D4863EB882168226C0C31A1
:101BF000A06DFFF731FA002808D0206E10210843AD
:101C0000206601266F7712E04908E1E72068016845
:101C1000490603D4016840221143016020684168ED
:101C2000202211434160206841683943416000200F
:101C300028773046F8BD0000592800086D280008B4
:101C40003728000870B50F480F4C42882088510093
:101C5000101880B20125A61C2080814208D80B49AB
:101C60000846A838FFF75CFF75700020208070BD23
:101C70008242FCD105481118A838FFF751FF357092
:101C800070BD00000600002042010020100400206A
:101C900070470000F8B5054604464035287F002609
:101CA00096468C4601280CD001272F77687F616803
:101CB00001280CD0CA1FFD3A07D1A168002904D120
:101CC00001E00220F8BD042801D0022695E060461C
:101CD000002821D0704600281ED0002B1CD0687F21
:101CE000042801D005206877002020666146A163A2
:101CF000A387E38771462164AB80EB80E0642065B5
:101D000007220123E16812021B03914221684A68FD
:101D100004D99A434A601FE001266EE01A434A60E4
:101D2000616D4A69012189028A4206D1A28FD207D8
:101D3000E28F2AD05208521CE287A26D52698A4271
:101D40000AD121684A689A434A60E988C907E98844
:101D50001DD04908491CE980697F042919D0A26D6A
:101D60002849D1622849A26D00209162A26D2749BD
:101D70001163A16D4863EB882168226C0C31A06D62
:101D8000FFF76AF900281FD108E05208D4E7490894
:101D9000E1E7A26D1E49D1621E49E4E7206841686F
:101DA00039434160616D0020C862616D8862616D78
:101DB0000863616D4863E38F2268A16B0C32606D2C
:101DC000FFF74AF9002806D0206E1021084320664C
:101DD00001266F7711E020680168490603D4016885
:101DE0004022114301602068416820221143416074
:101DF0002068416802221143416000202877304664
:101E0000F8BD000063280008C5280008372800082E
:101E1000592800086D280008704770470249CA69B0
:101E20000243CA617047000000000140094910B533
:101E3000401E884201D9012010BD074C606103217A
:101E4000081F00F0CDFF0020A061072020610020C6
:101E500010BD0000FFFFFF0000E000E0F8B5040047
:101E600006D025464035687B0026002802D005E0D4
:101E70000120F8BD2E73204600F026F82420687358
:101E80002068C16801277F03B943C160204600F084
:101E9000F5FE206A002802D0204600F0BFFE206830
:101EA00001690122D202914301612068416908223F
:101EB000914341612068C1683943C1602665202093
:101EC0006873A8730020F8BD7047FFB50746044645
:101ED0004037787B83B015460E46202855D1002E1A
:101EE0000AD0002D08D0A168C001814207D1206925
:101EF000002804D1F00702D0012007B0F0BD387BE4
:101F0000012842D0012038730020206521207873F9
:101F1000FFF778F90190258665860120A168000306
:101F2000814202D12069002802D03546002611E006
:101F300000250FE000228021204600F001FF00284C
:101F400015D1002D15D02168287848606D1C608E51
:101F5000401E6086608E019B002806980090E9D1A3
:101F600000224021204600F0EBFE002808D003208C
:101F7000C3E730882168C005C00D4860B61CE6E79D
:101F80002020787300203873B7E70220B5E7FEE71A
:101F900010B50F49002804D0012804D0022805D12B
:101FA00003E00C4902E00C4900E00C490D480C4AE2
:101FB0000260416000218160C16001614161816115
:101FC000C161FFF725F9002800D0FEE710BD000031
:101FD000801A0600A0860100400D0300E093040073
:101FE00000540040F804002010B501684A69D2434B
:101FF00052050ED4084A4A610022C2622023C11849
:102000004B768A76C36B04242343C3630A7601208C
:1020100010BD002010BD0000FFFBFFFFF7B588B02A
:1020200000226B461A8303910490032406AE9A8320
:10203000154664270FE0022007A9009101900123B3
:1020400002970F48039A0499FFF78EF9050007D00D
:102050000120FFF735F82046641EE4B20028EAD1DB
:102060006846808B002D40BA308002D005A000F079
:1020700099FE6846018B0A98018000200BB0F0BDE4
:10208000F8040020505933325F4932435F52656192
:1020900064204572726F720D0A000000FFB504469D
:1020A00000680F46016881B01D460122920211436B
:1020B0000160206801689210114301600B98009044
:1020C0000022314920460A9B00F0DDF8002857D154
:1020D000FE202168384008612B492046491C0B9B93
:1020E0000A9A00F003F900284AD120684169806902
:1020F000009020460B9A0A9900F06DF901267602AD
:10210000002807D0E06B04283AD1206801683143E9
:10211000016035E0284603990128CDB209D0080AAC
:102120002168086120460B9A0A9900F054F90028AA
:10213000E8D12068056120460B9A0A9900F04BF916
:102140000028DFD120680168FF22013211430160BD
:102150000B98009000220C4920460A9B00F093F84F
:1021600000280DD1012007432168F8B20861064913
:102170002046491C0B9B0A9A00F0B8F8002800D0B2
:10218000012005B0F0BD000001000100FFB50446CC
:1021900000680D46016881B01646FF2201321143E6
:1021A00001600B9800900022224920460A9B00F013
:1021B0006AF800283AD1FE200540206805611D49D3
:1021C0002046491C0B9B0A9A00F090F800282DD15C
:1021D000206841698069009020460B9A0A9900F0B6
:1021E000FAF801277F02002807D0E06B04281DD1F0
:1021F000206801683943016018E00498F5B20128AD
:1022000009D02168300A086120460B9A0A9900F02B
:10221000E2F80028E9D120680561064920467F31AF
:102220000B9B0A9A00F062F8002800D0012005B04C
:10223000F0BD00000100010070B516460D460446D1
:102240000FE02046FFF7D0FE002801D0012070BD2E
:10225000681C06D0FEF7D6FF801BA84208D8002DC8
:1022600006D020684069C0434007EAD4002070BD12
:102270000021E1622022A01842768176E36B1343AD
:10228000E3630176E2E7FFB50446080281B01D462C
:102290000E46070E09E0681C07D0FEF7B3FF0A9947
:1022A000401AA84211D8002D0FD02068012F18D055
:1022B0008169304688430004000C14D00020039943
:1022C0008842E8D0002005B0F0BD0021E162202264
:1022D000A01842768176E36B1343E3630176012015
:1022E000F1E74169E5E70120E9E70000FFB50446B1
:1022F0000802000E81B0254616460F462035009094
:102300001FE020684069C043400510D42068016880
:1023100001225202114301602168164848610020E1
:10232000E06220216976A876E16B04221AE0701C35
:1023300007D0FEF767FF0499401AB0420CD8002E70
:102340000AD000980128206812D081693846884355
:102350000004000C0AD0D4E70020E06220226A7654
:10236000A876E16B1143E1632876012005B0F0BD4A
:102370004169EBE7FFFBFFFFF8B5054617460E4640
:102380000446203515E04069C043C0060AD4102039
:102390002168C04348610020E06220216976A87668
:1023A000E16B14E0FEF72EFFC01BB04208D8002EF0
:1023B00006D020684169C9434906E4D40020F8BD2D
:1023C0000020E06220226A76A876E16B1143E16387
:1023D00028760120F8BD70B516460D4604460FE07C
:1023E0002046FFF701FE002801D0012070BD681CC7
:1023F00006D0FEF707FF801BA84208D8002D06D0A4
:1024000020684069C0430006EAD4002070BD002166
:10241000E1622022A01842768176E36B1343E363E6
:102420000176E2E71FB513460A46014658BA6B46E5
:102430009881022303A8642401930090029401234D
:102440000548FFF79BF8010002D004A000F0AAFCA9
:10245000002004B010BD0000F804002050593332B1
:102460005F4932435F5772697465204572726F72BB
:102470002C73746174757320697320307825303241
:10248000780D0A0008B51248C26BC1140A43C26332
:10249000C06B084000900E484030016A0122114391
:1024A0000162016A8907FCD50B480A4901600321D2
:1024B00041607D21C90081600849C160FFF726F9AC
:1024C000002803D006A000F06DFCFEE708BD000068
:1024D000001002400030004024060020FF0F0000E2
:1024E00048414C5F495744475F496E6974204661D3
:1024F000696C65640D0A000010B50548FFF732F9F4
:10250000002803D003A000F04DFCFEE710BD000042
:102510002406002048414C5F495744475F52656696
:1025200072657368204661696C65640D0A0000007D
:1025300010B5012000F046F810BD000010B5074AA4
:1025400001465088401C80B25080FDF7D1FD002923
:1025500002D1002000F036F810BD00002C00002051
:1025600000B50B4887B0426B02210A434263406BBF
:102570000391084005904020009001200190002028
:10258000029069460348FEF7ADFD07B000BD0000AC
:10259000001002400004005010B500224021024803
:1025A000FEF72AFE10BD00000004005010B5012205
:1025B00040210248FEF720FE10BD0000000400503C
:1025C0007047704770477047704710B5FFF7DAF8EB
:1025D00000F0B2FAFFF7F4FF00F038FB0320FFF73A
:1025E000D7FCFFF74FFF10BD70B50024074D07E083
:1025F00049194A88C1B24020FFF714FF641CA4B2F5
:10260000A100685A0028F3D170BD0000F233000821
:1026100038B5002469460C806A4601214020FFF746
:10262000FDFC69460888C10401D501240AE0410780
:1026300008D4C10601D5022404E0800701D5032493
:1026400000E00424204638BD08B500206946088013
:102650006A4604214020FFF7E1FC69460888C0066D
:10266000400E08BD08B50020694608806A4605216D
:102670004020FFF7D3FC6946088808BD08B5002054
:10268000694608806A4644214020FFF7C7FC694636
:10269000088808BD08B50020694608806A460421FC
:1026A0004020FFF7BBFC694608884005400F05281D
:1026B00003D203494000085A08BD402008BD00006D
:1026C000C433000870B5002500F052F8002414A0AF
:1026D00000F068FB184E06E08019428817A000F051
:1026E00061FB641CA4B2A000315A0029F4D107E0B8
:1026F00089194A88C1B24020FFF794FE6D1CADB223
:10270000A900705A0028F3D1FF20F530FEF7AEFA89
:10271000FFF76AFFFEF71EF8FEF7ACFA70BD000087
:10272000726164617220666C6173682076616C7599
:10273000653A0D0A000000003000002025303258B4
:102740003D253034580D0A0070B50024074D07E0D0
:1027500049194A88C1B24020FFF764FE641CA4B244
:10276000A100685A0028F3D170BD0000300000209D
:1027700070B500221046164C164E03E0062906D00E
:10278000401C80B28100615A0029F7D11AE0810013
:10279000081941880F231943418013E000200BE002
:1027A000052807D3994205D1A91980004988001945
:1027B000418005E0401C80B28100615A0029EFD1C0
:1027C000521C92B29500735B002BE7D170BD0000E4
:1027D00030000020CE33000800240A46014605A040
:1027E00000F0E0FAE0B2FFF7ECFE641C2404240CD5
:1027F000F8D0FEE752756E206661696C65643A2018
:1028000066696C65202573206C696E6520256420DF
:102810000D0A000010B50248FFF71EF810BD0000B9
:102820006803002010B5406A002146221152C1877A
:10283000FFF700F810BD10B5406A01684A689208B9
:1028400092004A60016E10221143016601225D214F
:102850000A54FEF7EFFF10BD10B5406AFFF718FAF3
:1028600010BD10B5406AFFF7D8FA10BD70B5054627
:10287000446AFEF7C7FC02462868006880061DD43B
:10288000206841682025A943416020684168890883
:10289000890041606421204600F043F8002800D000
:1028A0002566002120464030C18001214177206EFD
:1028B000002803D02046FEF7BDFF70BD2046FFF77D
:1028C000C1F970BD70B50546446AFEF79BFC02462F
:1028D00028680068800620D4206841682025A94324
:1028E00041606421204600F058F8002802D0206E94
:1028F00028432066206841688908890041600021DA
:10290000E18720464030C18001214177206E0028B8
:1029100003D02046FEF78EFF70BD2046FFF77CFAFD
:1029200070BDF7B504464068FF26053682B01546EF
:10293000B0420CD10121A068C903884202D04911DC
:10294000884204D1206801684022914301600095CB
:10295000002280212046039B00F0AFF820270028AA
:1029600013D16068B04216D1A068B902884202D083
:10297000491188420FD103210095002249022046C7
:10298000039B00F05FF8002805D0206E38432066D6
:10299000032005B0F0BD0020FBE7F8B50F460B465D
:1029A00015460092032104460022C90200F04AF8AD
:1029B0002026002812D13B46002280212046009587
:1029C00000F07BF8002809D103213B460022490290
:1029D0002046009500F036F8002803D0206E3043E2
:1029E00020660320F8BD000010B5144812490160AC
:1029F0000821C16100218160416101610722C26239
:102A000081620162816112024162C26041630122FE
:102A100002634160FEF790FF002800D0FEE701202E
:102A20004002FFF7FBF9064804494288A8310348F1
:102A3000FFF776F810BD0000003001406803002069
:102A400006000020F8B51D4616460F46044610E065
:102A5000032149028F4202D1002E00D1007B681C65
:102A600007D0FEF7CFFB0699401AA84208D2002DE6
:102A700006D0206881683940B142E9D10020F8BD14
:102A800020684168E022914341606068C11FFD39C0
:102A90000CD10121A068C903884202D049118842A3
:102AA00004D1206801684022914301600120403434
:102AB0006077002020770320F8BDF8B51D46174643
:102AC0000E46044609E0681C07D0FEF79BFB0699FA
:102AD000401AA8420BD2002D09D0206881683046E8
:102AE000884321D00020B842EDD10020F8BD2068F5
:102AF0004168E022914341606068C11FFD390CD1FB
:102B00000121A068C903884202D04911884204D13A
:102B100020680168402291430160012040346077C1
:102B2000002020770320F8BD0120DCE7704710B5B6
:102B3000FEF720FE10BD0000024901480860704702
:102B400000366E01480100200748016907484268C5
:102B50000123120C1204DB031A43114341600449A0
:102B6000C003886070470000000FFF1F0010024084
:102B700000ED00E000B50B4887B0416B0122114326
:102B80004163406B69461040059020200090002072
:102B9000019002200290039005200007FEF7A2FAA0
:102BA00007B000BD0010024000B51A4887B0426B64
:102BB00001210A434263426B0A400592436B202283
:102BC00013434363436B13400593C36B4A0413439E
:102BD000C363C06B009110400590022001900390E8
:102BE000092004900291052069460007FEF77AFA51
:102BF00004200090049069460748FEF773FA01220A
:102C000000211C20FEF7FEFD1C20FEF7EFFD07B0A3
:102C100000BD0000001002400014005010B5018CEF
:102C2000490612D501684A6901231B03446A9A4385
:102C300022434A61416A994207D101684A690323E4
:102C40005B03806A9A4302434A6110BD10B5FFF7E7
:102C5000ABFF0948074901607D21C902416000219D
:102C60008160C160016181610C214161FFF7F6F86B
:102C700010BD0000004400404805002070B5044627
:102C800000680169012252039143E2681143016126
:102C9000A16820690143606901432068C268274B2D
:102CA0001A400A43C2602068E16942690123DB02DD
:102CB0009A430A4342612068416903221202914308
:102CC000A26911434161E06998421AD1FEF79EFD65
:102CD0006168192249005043FDF70AFA054664214C
:102CE000FDF706FA060164214843281AC000323075
:102CF000FDF7FEF9F8210140490071184007400F27
:102D000018E0FEF783FD6168192289005043FDF742
:102D1000EFF905466421FDF7EBF90601642148430C
:102D2000281A00013230FDF7E3F9F0210140711853
:102D30000007000F08182168886070BDF3E9FFFFE5
:102D4000FFB581B01E46174605460A9C1CE0601C74
:102D50001AD0002C04D0FEF755FA801BA04213D9DC
:102D60002868C168FF22A1329143C1602868416987
:102D7000490849004161202040356873A87300204C
:102D80002873032005B0F0BD2868016802988843C5
:102D900004D00020B842DAD00020F3E70120F9E7A0
:102DA000704770470FB410B503A9044B044A02984A
:102DB00000F048F810BC08BC04B01847B93200084D
:102DC0005801002030B47446641E2578641CAB4260
:102DD00000D21D46635D5B00E31830BC184700005D
:102DE0008307FF22DB0E9A408907090E99400028CD
:102DF00008DB830809489B001818036893430B43BA
:102E0000036070470007000F0838830804489B00E0
:102E10001818C36993430B43C361704700E400E093
:102E200000ED00E002E008C8121F08C1002AFAD134
:102E300070477047002001E001C1121F002AFBD13A
:102E400070470000FFB591B00F460546002606E02A
:102E500025280AD0149A139990476D1C761C28785F
:102E60000028F5D1304615B0F0BD002400940121B2
:102E7000F34A029400E004436D1C2B780846203B83
:102E800098401042F7D128782A280ED002212878BD
:102E90000246303A092A15D8009A0A235A43303A92
:102EA00080180C436D1C0090F1E701CF00900028C2
:102EB00005DA0120400304430098404200900220BC
:102EC00004436D1C28782E2815D10420044368780B
:102ED0006D1C2A280AD101CF6D1C02900BE00299CB
:102EE0000A225143303940186D1C0290287801465F
:102EF00030390929F3D928786C2810D006DC4C2801
:102F00001AD068280ED06A2817D104E0742813D08C
:102F10007A2812D110E00120400504430CE0012181
:102F2000090501E0032109050C436978814203D1B9
:102F30000120000524186D1C6D1C287803906E2854
:102F40001ED00CDC632831D004DC00288AD058283D
:102F500011D1B2E064287BD069280CD178E07328C5
:102F60002DD004DC6F2870D0702804D1A7E075281C
:102F70006CD078286BD0149A13999047761C62E035
:102F80006002400F022807D003280AD004283868BE
:102F90000AD006603F1D56E03868F11706604160B0
:102FA000F8E738680680F5E70670F3E73878694691
:102FB00008740020487404A80390012003E03868D6
:102FC00003900020C0433F1D61070FD5002101E0A1
:102FD0000199491C029A0191914213DA8142F7DB6F
:102FE000019A0399895C0029F2D10BE0002101E0EC
:102FF0000199491C01918142FADB019A0399895C8C
:103000000029F5D101990098139A401A00902146A1
:10301000149B00F03BF901998019461807E00398CA
:1030200003990078491C0391149A139990470198C9
:10303000401E0190401CF2D12146149B139A009827
:1030400000F014F986196D1C09E741E033E034E023
:103050000A200021049005916002410F022905D049
:1030600001CFC2179446032905D007E0FF1DFF08D2
:10307000FF0003CF06E000B2C2179446042902D134
:1030800040B2C1178C4600226146944506DA0A46D2
:103090000021404291418C462D2102E0210504D5BA
:1030A0002B216A461176012103E0E10701D020219E
:1030B000F7E7019154E00A200BE0102009E010200E
:1030C000049000210420044308200591029003E0AD
:1030D00008200021059104906002410F022905D0CB
:1030E00001CF00229446032906D006E0FF1DFF0809
:1030F000FF0003CF8C4603E080B2042900D1C0B2A8
:103100000021019121072BD50399702906D0049A3B
:103110001021059B4A401A4305D00EE040216A4623
:103120001176012108E06146014306D030216A464C
:1031300011760399517602210191049A0821059B89
:103140004A401A430CD16146014301D1610707D5BA
:1031500030216A461176012101910299491E02919E
:103160000399582904D037A103910FA90F910DE0BD
:1031700039A1F9E76146059B049AFDF7F7F8039B2F
:103180008C469B5C0F9A521E0F921370614601434E
:10319000F0D10F9807A9081A20300390600704D5D2
:1031A000012000048443029801E001200290039969
:1031B000884201DD401A00E0002041180290019889
:1031C00009180098401A0090E00306D42146149B89
:1031D000139A009800F05AF886190020049008E02D
:1031E00006A9085C149A139990470498401C761C11
:1031F000049001998842F3DBE0030CD52146149B2F
:10320000139A009800F042F8861904E0149A3020CE
:1032100013999047761C0299481E02900029F5DC0C
:1032200008E00F980F990078491C0F91149A139990
:103230009047761C0399481E03900029F1DCFBE6B9
:10324000092801003031323334353637383961627C
:103250006364656600000000303132333435363740
:10326000383941424344454600000000F8B5044661
:1032700000251E461746880404D405E03946202060
:10328000B0476D1C641EF9D52846F8BDFFB504464D
:10329000002581B01E46C80301D5302700E0202755
:1032A000880404D505E038460399B0476D1C641EB8
:1032B000F9D5284605B0F0BD13B5044B0122694687
:1032C0000348FEF702FE00981CBD0000FFFF00004F
:1032D00048050020010403D54004400F78307047B2
:1032E000410403D58004400F70307047810403D53A
:1032F000C004400F68307047C10403D50005400F7B
:1033000060307047010503D54005400F58307047C5
:10331000410503D58005400F50307047810503D526
:10332000C005400F48307047C10503D50006400F67
:1033300040307047010603D54006400F38307047D3
:10334000410603D58006400F30307047810603D513
:10335000C006400F28307047C10603D50007400F54
:1033600020307047010703D54007400F18307047E1
:10337000410703D58007400F10307047810703D500
:10338000C007400F0830704700207047FFF71DF955
:10339000FFF7DAF9FFF796F9FDF78AF9FDF7ECFA8E
:1033A00002A0FFF7FFFCFDF727FBFCE773797374BE
:1033B000656D20696E69742066696E6973686564FD
:1033C000210D0A004000800000010002000470008E
:1033D00020106C0080886D00008872005006670025
:1033E00000006600F0F06E00FC03410064C80000BD
:1033F0000000410074C8720013066C0090996D00C3
:10340000C0997000A02E6E00FC8B6600F0F867007B
:1034100040106900060000000000000000000000ED
:10342000000000000000000000000000010000009B
:103430000200000003000000040000005C340008EB
:10344000000000205C010000B60400084C350008B4
:103450005C010020DC080000342E00082103180461
:10346000041205128E121932321A6408520A3201FD
:1034700032671272145006401407424112041A4275
:103480001612431480384412201A450C124624D0D8
:10349000014713104824803E4913204A34409C4B76
:1034A000124C34F0D24D1A4E24324F125014701771
:1034B00051126A125214C0CF5314020A54342222F9
:1034C000551256127A125714FFFF583418FE59320B
:1034D0005A125B12221A5C04125D2419195E13FF42
:1034E000611CEF0162041A63041A64041270142050
:1034F000106C1480886D2B40999C29A4126614F0DE
:10350000F06E14FC8F761221120614490104141B6C
:1035100002091B0169CA13C20B141AC0021C1A202B
:1035200005B41A0DA41A0E04120114308E411B6446
:10353000C8D83A02EC1F08020130750AAE0B1658C3
:0C3540000202820113127A2A0434B10046
:04000005080000C12E
:00000001FF
