:020000040800F2
:1000000070070020C9000008651E0008951A000846
:10001000631E0008090700082B2A000800000000E2
:100020000000000000000000000000000F25000894
:10003000A1110008000000004B1F0008E92500087E
:100040002D2A00080101000800000000010100083D
:100050000101000801010008010100080101000878
:100060000000000000000000000000000000000090
:100070000101000801010008010100080000000062
:10008000ED2600080000000000000000010100084B
:100090000000000000000000000000000101000856
:1000A00000000000812300080000000091280008E3
:1000B000010100080348854600F0E6F900480047C2
:1000C0006D300008700700200E4880F308880E4845
:1000D0000168090E0D4A914205D10D480D49016094
:1000E0000D480E4901600E4880470E480047FEE764
:1000F000FEE7FEE7FEE7FEE7FEE7FEE7FEE7FEE7D8
:10010000FEE7000070070020040000001F00000050
:100110001810024001000000000001400000000033
:10012000F5250008B500000830B50B460146002053
:100130002022012409E00D46D5409D4205D31D46ED
:100140009540491B2546954040191546521E002DE5
:10015000F1DC30BD03460B439B0703D009E008C91F
:10016000121F08C0042AFAD203E00B780370401C67
:10017000491C521EF9D27047D2B201E00270401CF5
:10018000491EFBD270470022F6E710B513460A4617
:1001900004461946FFF7F0FF204610BD0321001D5D
:1001A000401E037812021A43491EF9D510467047C3
:1001B000F8B502464A40D40F42004B0052085B0893
:1001C0009A4202D20246084611464A0023D0C30D85
:1001D0004A00DDB2120EAD1A202D35DA4902012691
:1001E000490AF6058A19002C00D0524220214F1BE3
:1001F0001146B9402A411018C20D9A4221D0002C54
:1002000017D0012D08DCDA05801AD20F8019D20729
:10021000DBB200F0FFF8F8BDDA05801A01234000D8
:100220001B06C01880185A428018CA0F1043490094
:1002300007E04908C2071143DA05801A801940080F
:10024000801800F0DFF8F8BD61000122511A001B90
:10025000F7E70122D2075140AAE70122D207504016
:10026000A6E7024670B54A40D30FDB0740002DD009
:100270004A002AD0010E140E000212020919400A87
:10028000520A8418E50104465443000A120A2E0457
:100290005043A4194219200CC543AA18120C012579
:1002A000AD03521C521912047F39240400D0521C91
:1002B000104301D44000491EC2B20C06C0092018E8
:1002C000401C4008802A02D003E0002070BD400896
:1002D0004000002900DA0020184370BD70B50246C6
:1002E0004A40D50F40004A00ED0740085208002858
:1002F00014D0002A12D0C40DD30D41020120C00534
:100300005202490A520AE41A091812187D3491421D
:1003100001D3641C00E04900002C01DA002070BD0C
:100320000023914201D3891A034340084900002861
:10033000F7D100290AD0914202D10121C90705E075
:10034000914201D2012101E00121C943E005C01819
:10035000401900F057F870BDC217C10F504010B5DA
:100360004018CA079623002100F054F810BD10B5BC
:1003700000229623114600F04DF810BD41004002C6
:100380000122400AD205090E80187F2901DA0020D7
:100390007047962903DC9622511AC8407047963957
:1003A00088407047F0B51FB40646002082B005466D
:1003B0004024019100901BE0019922460F463046EF
:1003C00000F084F8049A059B801A994110D31046D6
:1003D0001946224600F06AF8361A8F4101972246E4
:1003E00001200021009F00F061F838184D41009075
:1003F0002046641E0028DFDC019B00982946324617
:1004000007B0F0BD002904DA401C490001D14008C2
:100410004000704770B40024050C05D1102400047E
:1004200002D1002921D01124050E01D10002083487
:10043000050F01D10001241D850F01D18000A41CEE
:10044000002801DB4000641C002908D020252E1B59
:100450000D46F540A14000D0012129430843010683
:100460001B1B000ADB1D02D5002070BC7047DB059A
:10047000181880180029F8DA401C4900F5D170BC22
:100480004008400070470000064C0125064E05E07C
:10049000E36807CC2B430C3C98471034B442F7D3A5
:1004A000FFF70CFE443100086431000810B5202A23
:1004B00004DB0146203A9140002010BD91402023EA
:1004C0009C1A0346E3401943904010BD10B5202A02
:1004D00004DB0846203AD040002110BD0B46D34033
:1004E000D0402024A21A91400843194610BD70B58F
:1004F0008C180578401C6B075B0F01D10378401CFA
:100500002A1106D10278401C03E006780E70401CC8
:10051000491C5B1EF9D12B0705D40023521E0DD4B4
:100520000B70491CFAE70378401CCB1A921C03E0BD
:100530001D780D70491C5B1C521EF9D5A142D8D301
:10054000002070BD004870472C0000200820704734
:10055000F8B500252E464C49009501F0EAF84B4CC1
:1005600005216079401CC0B2FFF7DEFD61710029F2
:1005700004D145480C213830FFF705FE424801F010
:1005800067F9424C1034618881421ED93E4A404985
:100590005069884206D913782778BB4202D80126D1
:1005A000516101E0401C5061507A10280DD1107843
:1005B0002178884209D8506902F0FCFC11784A0081
:1005C000314938318B5AC018885230484079042854
:1005D00035D12E482778807918E001460C22514306
:1005E000294A44328B1869009E4678325B5A525A27
:1005F000D21A254B38335B5A9C46234B6244BC339A
:100600005A52624673466D1C5A52EDB2AF42E4D262
:10061000401C1E4DC0B20A21FFF786FDA9711A4B7E
:100620000021A889BC3306E04A009A5A824200D9C8
:100630001046491CC9B28F42F6D2C008A88113489F
:10064000A1888289914201D3009901E001210091A2
:100650000E430021002E03D00122C271C18108E0A7
:10066000C279002A0AD0E388C289934205D9521C74
:10067000C28101F0E5FB07A003E0C17101F0D9FBE5
:1006800006A002F0E9F9F8BD080300201C000020D4
:10069000102700004F4E0D0A000000004F46460D87
:1006A0000A00000010B501F0B1FB01F0C2FB02F03E
:1006B000B3F810BD00B5020007D00D48012A08D0DC
:1006C000022A0FD00020C04300BD084602F0F2FC11
:1006D0000BE04A1E032A08D2054A49000832515A43
:1006E000818002E00A225143C180002000BD000049
:1006F0002C00002010B5002803D00146014802F06C
:10070000E1F810BDC8010020FEE70000F8B50B4677
:1007100000280FD1114A901D9178451F841F8788AA
:10072000002908D0491E917039461846FFF7FCFC95
:1007300029702170F8BD39461846FFF7F5FC217085
:1007400028780E463946401CFFF7EEFCB14201D036
:1007500001F044FB20782870F8BD0000060000205E
:1007600070B5404B86B09A680446DB68002002935F
:100770000192002C72D0002970D02288072A50D014
:1007800007DC130002F078F9074941454D514D51FE
:1007900068000026344D122A43D006DC082A44D0D3
:1007A000102A25D0112A57D143E0132A3DD0FE2A22
:1007B00005D0FF2A50D101206870034622E000F0E6
:1007C00041FA01F06BFF002122880123084600F066
:1007D000DFFEFFF78FFF6E70C82000F0E2FCBFF372
:1007E0004F8F23492148C860BFF34F8F00BFFDE7FB
:1007F00068780123012804D1A0782870A088688037
:1008000000E000230021084624E0204600F0BCFD63
:1008100022E0204600F012FD1EE00123032101A882
:1008200018E0204600F048FD16E0204600F0BEFC2F
:1008300012E0039604966878002811D00D486946A6
:10084000888100F021F900A90231C86022880123C3
:10085000062103A800F09CFEFFF74CFF06B070BD18
:100860002288CEE7E0300008000000200400FA05EE
:1008700000ED00E00580000008B500206946088012
:100880000D480178002916D04178002913D14088FD
:1008900000F087FC0F2252026721402001F00EFA7F
:1008A0006A466721402001F097F979229201672179
:1008B000402001F003FA08BD000000200148407804
:1008C000704700000000002010B588210148FFF7A4
:1008D0005AFC10BD9805002010B5074CA0780028E0
:1008E00009D0E188607822468001803A801800F0C3
:1008F00005F80020A07010BD18060020F8B50025EE
:100900000E460746002859D0002E57D0314C53E0F0
:10091000A07D030002F0B0F80B0710151A1F253157
:100920003F4449535B00785DFD2843D129490020AD
:100930002039088701203CE0785DFC2847D102205F
:1009400037E0785DFB2842D1032032E0785DFA2859
:100950003DD104202DE01F48795D203841870520D6
:1009600027E01C487A5D2038418F1202891889B22D
:10097000418736292BD806201BE01648795D2038A0
:10098000028F8154018F491C89B20187408F8142B7
:1009900010D107200DE0785D042818D1082008E068
:1009A000785D032813D1092003E0785D02280ED179
:1009B0000A20A0756D1CADB2B542A9D3F8BD785D13
:1009C000012804D103482038418FFFF7C9FE0020D9
:1009D000EFE7000028020020F8B5234C1421234F34
:1009E0002180398861801521A18021492246D1804A
:1009F000172121817988002049BA51811D4D032298
:100A0000014620319600A15300214300DB199B8849
:100A100002E05B08491C89B2AB42FAD8002803D037
:100A2000012801D0022801D10A3189B2C902194333
:100A30003319521C401C80B2598092B21028DFD367
:100A400000209100605209194880054607E0091905
:100A50004A88C1B2402001F031F96D1CADB2A90045
:100A6000605A0028F3D1F8BD34040020780100203A
:100A7000041B0000FF07000010B5024800F0BCFD99
:100A800010BD0000003C00080148006870470000ED
:100A90000038000870B501F05BFB1A4CA06001F053
:100AA0005BFB05460835606001F0CAFD01F0C2FD40
:100AB000206101F0C3FD2D1D4519E06001F0FCF936
:100AC000A06101F0FDF92D1D45196061FFF73AFDA8
:100AD0002062FFF73BFD2D1DE0614019012180B22E
:100AE0008902884206D908A001F0B6FFB42113A0FC
:100AF00001F0F0FB00F040F81848016818A001F080
:100B0000ABFF70BD440200204572726F723A2066DE
:100B10006C617368446174614C656E206973206D0B
:100B20006F7265207468616E20464C4153485F5077
:100B30004147455F53495A45210D0A002E2E5C2E30
:100B40002E5C4170705C636F6D6D6F6E5C73726371
:100B50005C636F6E6669672E6300000000380008F2
:100B6000736E3A20307825780D0A00000149012083
:100B70000870704704000020F8B5184E0025306852
:100B8000174C184F2060B84204D017A001F064FF42
:100B900000F064F830682060B84206D019A001F077
:100BA0005BFF56211FA001F095FB0C48001D026859
:100BB000E90009194A609203120C8B68002104E0D5
:100BC00006688F00491CDE5189B2001D9142F7D39F
:100BD0006D1CADB2042DEAD3F8BD0000003C000846
:100BE0004402002078563412666C61736820736585
:100BF0007474696E6720697320656D707479210D56
:100C00000A0000004572726F723A20666C61736868
:100C100020776F726B2061626E6F726D616C210D57
:100C20000A0000002E2E5C2E2E5C4170705C636FFB
:100C30006D6D6F6E5C7372635C636F6E6669672E59
:100C40006300000010B5044C2078002803D000F0A9
:100C500005F80020207010BD04000020F8B5124CEB
:100C60000026204600F0C8FC114F104838600122D1
:100C70003946204600F0D6FC251DF000C419211D80
:100C80000122284600F0CEFC60682D1D8003020C76
:100C90002846A16800F0C6FC6068761C4519B6B20B
:100CA000042EEAD3F8BD0000003C00087856341248
:100CB00044020020F8B51E46002828D0002E26D079
:100CC00092235A43124BD218144680343388258A13
:100CD000C91A8D4200DD0D46E189ADB28F18191891
:100CE0002A463846FFF736FAE0894019E081318814
:100CF000681E08183080208A401B0004000C2082E7
:100D000005D1052020720348408808382082F8BDAC
:100D1000680200200C000020F0B5054685B00E46A4
:100D200000206946888117460490002D03D0002ECC
:100D300001D0002F02D0002005B0F0BD0020694690
:100D400088812E48922179430C18009480344DE01C
:100D5000207A030001F090FE090612171C212830AA
:100D600039415000685CAA283CD10020E0816B5CCE
:100D70000121009AE1818354217233E0685C394695
:100D800000F06CF92EE0685C394600F0A1F929E02A
:100D9000685C394600F0C0F924E003AB3A463146BE
:100DA0002846FFF787FF1DE0E0896A5C431C009935
:100DB000E3814254062006E0E0896A5C431C009906
:100DC000E3814254072020720CE0E0896A5C431CF6
:100DD0000099E38142540820F5E7685C394600F049
:100DE000B7F9049069468889401C888168468189E2
:100DF000B142ADD304989FE70020E4E768020020E9
:100E000001484088704700000C00002010B5002405
:100E100092211248FFF7B7F906211148FFF7B3F9FD
:100E20000F4800F0A7FC401C03D10E490EA001F0B2
:100E300051FA0B48094A41880846083880B2922383
:100E400063439B188033641C24061882240EF6D05A
:100E50004804000C01F016FB10BD000068020020E1
:100E60000C000020220200002E2E5C2E2E5C417011
:100E7000705C636F6D6D6F6E5C7372635C646174E4
:100E80006170726F636573732E6300007CB500241C
:100E9000254600946846019400F06CFC401C04D187
:100EA0008F21890013A001F015FA68461A4980883D
:100EB0008880684600780A78904204D16A46528851
:100EC0004B889A4214D00870684646884E800125A7
:100ED00092211248FFF757F91049083EB0B292220A
:100EE000624352188032641C24061082240EF6D00D
:100EF00028467CBD2E2E5C2E2E5C4170705C636F8C
:100F00006D6D6F6E5C7372635C6461746170726F3F
:100F1000636573732E6300000C00002068020020DC
:100F2000F8B5134E134F0025002416E01248610057
:100F30000818415D0029FCD0002D16D07088FF22D2
:100F40002146113251430D4A738889180A182946DF
:100F5000204600F017F8641CE4B238788442E5D3E8
:100F60006D1CEDB2022DDFD3F8BD0020E7E70000D5
:100F70000C0000209C010020A80100208804002013
:100F800070470000FFB57D2781B014460D4600264E
:100F9000FF0000F001FF019800281DD1022D1BD297
:100FA000002C19D0FFF78AFC002818D12046019A9E
:100FB0000499FFF7B1FE224900244C5500280ED0B9
:100FC0002048214D007800280BD0012811D002289C
:100FD00024D0032823D104E01CA001F03DFD05B07E
:100FE000F0BD2046A97AFFF791FBFF276E89F53700
:100FF00015E01449AE89891FC8780F1D002803D059
:10100000401EC8703E8005E03888401CB04201D0C8
:1010100000F0E4FE3E80AE897D2700E00F273846D1
:1010200000F0E2FE074908484988803822463346E6
:101030000029D4D0083989B2001D01F0CFFACEE7DB
:10104000A80100200C000020E80200204572726F09
:10105000722070617261210D0A00000070B51A4A99
:101060001A4D167892224A43551904462A462034CE
:1010700003098032002E06D0012E14D0022E17D084
:10108000032E17D10AE0032B01D0072B12D101291F
:1010900000D9E0B20107C90D51810EE0022BF6D054
:1010A000062BF4D006E00B2B07D00F2B05D001E068
:1010B000042B02D00020107270BDD1894B1CD3814B
:1010C00048550220F7E700000C00002068020020CD
:1010D00010B5104B92240E4A6143CB181278194672
:1010E0008031002A05D0012A08D0022A08D0032A1C
:1010F00006D14A89C40812194A8101E002028A8194
:10110000CC89621CCA81E0540320087210BD000023
:101110000C0000206802002010B50C4B92240A4AF3
:101120006143CB18127819468031002A04D0012A75
:1011300002D18A8912188A81CC89621CCA81E05442
:101140000420087210BD00000C000020680200207E
:1011500070B59222104B4A43D51806462C46002003
:1011600080342072552E00D070BD0C480278002AC1
:1011700002D0012A09D104E080886289401E82429F
:1011800003D1002901D1FFF777FBE089411CE18100
:101190004655012070BD0000680200200C000020B0
:1011A000704710B501F0E2FE10BD0000F8B5002454
:1011B000054600280DD000290BD01D484078002896
:1011C00030D0C8031B494018070C0D2F2AD81A4EDF
:1011D0001EE00020F8BD2888042804D008280ED07E
:1011E000132813D105E060004019408800F032FE5A
:1011F0000AE060004019408801F02AFA04E060002B
:101200004019408800F05EFEA1007050641CA4B23A
:10121000BC42E0D37804010C2A880123304600F058
:10122000B7F9F8BD00232A8819461846F7E70000E9
:10123000000000200000FFFFD0010020FEB50024C8
:101240000546002811D000290FD018484078002802
:1012500027D06888C9034004000C0290144808187D
:10126000060C1A2E1DD8134F12E00020FEBD0020E0
:101270006946088060000190401901796A46029829
:1012800000F0AAFC694601980988641C3952A4B28E
:10129000B442ECD32A8801233146384600F078F96D
:1012A000FEBD00232A8819461846F7E700000020F3
:1012B0000000FEFFD0010020F8B506460120002501
:1012C0000A460090002E0BD0002A09D02D48407805
:1012D00000284ED00621901EFEF726FF87B22FE091
:1012E0000020F8BD28460621484384193088A41CF4
:1012F000032806D0052831D0072824D012281BD176
:101300000AE0A01CFEF74AFF01466078227800023E
:10131000104300F0A3FD0AE0A01CFEF73FFF617838
:1013200023780A021A430146104601F0A3F9044645
:10133000FFF71CFC002C01D0002000906D1CADB20A
:10134000BD42CFD317E0A01CFEF728FF014660780E
:1013500022780002104300F0CDFDE8E7A01CFEF764
:101360001DFF01466078227800021043FFF7A2F9C2
:10137000DDE700200090002132880846009B00F045
:1013800007F9F8BD00000020FEB506460120002543
:101390006A4601901581002E0ED000290CD01C4801
:1013A000407800282AD070884004000C0090880300
:1013B00018494018070C1EE00020FEBDA800841943
:1013C000E2882179241D009800F078FC00984028DC
:1013D00003D16188208800F031FF217802AA0098AB
:1013E00000F0FAFB694660880989884201D0002034
:1013F00001906D1CADB2BD42E0D301E00020019030
:10140000002132880846019B00F0C2F8FEBD0000B2
:10141000000000200000FFFFF8B5002469460C80A2
:1014200015A001F019FB194D0CE0C1B26A4640202D
:1014300000F0D2FB68460288A95B154801F00CFB5E
:10144000641CA4B2A600A85B0028EED10024114DB4
:101450000CE0C1B26A46402000F0BEFB684602883C
:10146000A95B0B4801F0F8FA641CA4B2A600A85BC3
:101470000028EED1F8BD00007261646172206963DA
:101480002076616C75653A0D0A000000400000206E
:101490000822000834040020014948617047000018
:1014A000000401400149C86070470000002002406C
:1014B00000B507490A6902231A430A6148610869AD
:1014C000402210430861034800F04AF800BD0000C4
:1014D00000200240FF0F00000848C168C90701D082
:1014E00001207047C168490701D502207047C068D4
:1014F000C00601D503207047042070470020024039
:1015000002480169802211430161704700200240B6
:1015100010B5054A136901242343136101800F208C
:1015200000F01EF810BD00000020024030B50C464F
:10153000054689B2FFF7ECFF042803D1210CA81C53
:10154000FFF7E6FF30BD0000034802494160034950
:10155000416070472301674500200240AB89EFCD11
:1015600000B50246FFF7B8FFFD21521E491EFDD10E
:10157000012801D1002AF5D1044900230B6134234D
:10158000CB60002A00D1052000BD000000200240F1
:10159000FFB54D0081B017460646342D02D9002014
:1015A00005B0F0BD124C042220461249FEF7D2FDD0
:1015B0000420002E00D0A81CA080FF20013007438B
:1015C000E780002E10D00A482A4608303146FEF740
:1015D000C1FD0835ADB2074960190422091DFEF7A7
:1015E000B9FD2D1DA8B2DBE7049820810A25F2E79A
:1015F000C8010020E030000810B50446800502D084
:101600000020C04310BDFFF79FFF3420FFF74AFFC3
:101610002046FFF74DFF2020FFF744FFFFF770FF44
:10162000002010BDF8B50546900016460F46002470
:1016300041190D4A601E914214D8A90712D1FFF733
:1016400083FF0AE0A00039582846FFF76FFF2020EB
:101650002D1DFFF727FF641CA4B2B442F2D3FFF79D
:101660004FFF0020F8BD000000400008F0B5CB7827
:101670001A07120FDB0601D58B781A4300230127C6
:101680009C06240E0E883D469D402E4207D00568DC
:101690000F26A640B5431646A640354305605B1CA1
:1016A000DBB2082BECD3031D9C460B881B0A9E461D
:1016B00000239C06240E3D469D407646354209D0C7
:1016C00065462D680F26A640B5431646A64035430D
:1016D000644625605B1CDBB2082BEAD3CA78282A53
:1016E00006D0482A03D1026909880A430261F0BD85
:1016F000426909880A434261F0BD4B0710B5DB0E11
:10170000082901D2203000E024300F249C400168D9
:101710009A40A1431143016010BD416170470161CE
:1017200070470021C9430180022181700421C170EA
:101730007047F8B50E4607001AD0002E18D00024C6
:1017400020460C214843395C32195172C51968781A
:101750003055281DFEF722FD00BA000AE979000283
:101760000843A1008919641CA4B24861092CE7D37D
:10177000F8BD000070B51A4D04000FD000F0A6FCB3
:101780002070014617A001F067F9207800280AD0E0
:10179000022818D0032803D016A011E0284670BDF7
:1017A00000F0DEFC01E000F0BBFC8000083060804F
:1017B00081B217A001F050F96088882806D918A0D6
:1017C00001F04AF9EAE700F09DFCEFE700F0B4FC15
:1017D000A08001461AA001F03FF9002070BD000072
:1017E000FFFFFFFF64617461547970653A202564DE
:1017F0000D0A00004572726F723A20756E73757033
:10180000706F72742064617461547970650D0A00A0
:10181000646174614C656E3A2025640D0A00000015
:101820004572726F723A20646174614C656E206912
:101830007320746F6F206C6F6E670D0A00000000DC
:1018400063686972704E756D3A2025640D0A000058
:10185000F8B5002642690478354631469446002A98
:101860000AD00122631E875C9F4207D101231943DE
:1018700092001218566905E00020F8BD521CD2B241
:10188000092AF0D30122631C875C9F4205D1022301
:10189000194392001018456903E0521CD2B2092A7C
:1018A000F2D3C80700D10026880700D4002560467F
:1018B0004000801B401B4000FEF74EFD0746A81B62
:1018C000FEF74AFD3946FEF709FD05462046FEF7BC
:1018D0004EFD2946FEF76CFC0349FEF7C2FCFEF7FD
:1018E0004DFD80B2F8BD000000000C42F8B5044682
:1018F0000E464030818D49084900818500F082FB09
:10190000054601461F48FEF70FFC0090B7682846C1
:101910003946FEF709FC054652200099FEF704FC03
:1019200019498F420AD8281A184AC1038918090C84
:101930002183218B401A0D38A08209E0291A0D3924
:101940004908091D2184218C691A081A0D38A083C1
:101950002088FF217E31884320807088042800D0B1
:1019600002203188FF302130002900D001210843B6
:101970002080208E800B8003208600202087A08777
:10198000F8BD000000CA9A3BA08601000080F9FF64
:10199000064910B5C84208D184140121204600F040
:1019A000FDFA0021204600F0F9FA10BD00D0FEBF7C
:1019B00010B54B880122D2029342836901D11343AF
:1019C00000E093438361826901239B029A430B8960
:1019D0001A438261836904220C7893432343836111
:1019E000C36993430A7B1343C361C26902239A43C9
:1019F0004B791A43C261C2698B79520852001A436B
:101A0000C261C26908231A43C261026A4B89120C7F
:101A100012041A4302620979202904D3C16A4909D0
:101A20004901C16210BDC26A520952010A43C26231
:101A300010BD70B50446C0690D4630218843297930
:101A40000843E061E06944218843A9790843E061E3
:101A5000E069297A800880000843E061A0691821C4
:101A6000884369890843A061A06904218843297BD0
:101A70000843A06100F0C6FA06462968FEF754FB49
:101A80000009206230462968FEF74EFB0007000F70
:101A9000606270BDFEE740300029818D02D00122D6
:101AA000114301E0490849008185704740300849E9
:101AB000828D02231A43828504E00A46491E89B2B8
:101AC000002A02D0828D9207F7D4808A70470000E6
:101AD000B80B00000100064805D0012905D00229F5
:101AE00000D104487047044870470448704700001C
:101AF000801A0600E0930400A0860100400D030058
:101B00000A0401D5006F0AE0042907D1064A1378B8
:101B1000002B03D18B01038201231370808E0840B8
:101B200000D0012070470000B0010020808E0840E6
:101B300000D001207047000038B5012105464C0453
:101B4000204600F013FA0121204600F00FFA092484
:101B5000E406032205212046FFF7CFFD03220421DE
:101B60002046FFF7CAFD20206946088002208870C1
:101B70001C20C8702046FFF779FD102069460880B8
:101B80002046FFF773FD2846FFF7A4FF044C0146EB
:101B9000204600F007F84021204600F072F838BDDA
:101BA000005400403EB50C4605460121480500F0B2
:101BB000E9F9684600F076F80120694608800020BF
:101BC00088800420488028460294FFF78FFE012178
:101BD0002846FFF760FF3EBDF7B582B000206A4699
:101BE0001D4D10806E460224284600F048F81B4F19
:101BF00028463946FFF784FF0028F9D001212846FE
:101C0000FFF754FF012149022846FFF78FFF002804
:101C1000F8D014E0284600F023F839462846FFF7AC
:101C20006FFF0028F9D00D492846091DFFF768FF0E
:101C30000028F8D0284600F017F83070761C2046AF
:101C4000641EE4B20028E5D168460088049940BAD1
:101C50000880002005B0F0BD005400400480000062
:101C6000FF21013101827047024A00211170008A70
:101C7000C0B27047B00100204908818070470182DE
:101C8000704770B50C4605460021FFF704FF00229F
:101C900021462846FFF7F0FF01212846FFF7FBFE0B
:101CA00070BD00000121018020218180022141803E
:101CB0000149816070470000A0860100F7B56A46BF
:101CC0001089174C40BA108102AE02252046FFF75A
:101CD000D6FF144F20463946FFF712FF0028F9D0EF
:101CE0000AE031782046FFF7CAFF39462046FFF761
:101CF00007FF0028F9D0761C28466D1EEDB200289B
:101D0000EFD101212046FFF7D1FE01256D022946C2
:101D10002046FFF70BFF0028F9D00020FEBD000091
:101D200000540040048000000249014808607047E8
:101D3000CCCC0000003000400349C968014201D00A
:101D400001207047002070470030004070B5032527
:101D50000F4C012000F07EF9612000F02BF90028E3
:101D6000FAD000F0EBF80B4E304600F031F8284680
:101D700000F01EF800F078F9304600F029F820460F
:101D800000F01EF800F00CF8FFF7CEFF70BD000069
:101D9000E20400005555000010B500F001F810BD38
:101DA0000249014808607047AAAA000000300040BC
:101DB00000B50249486000F0C1F800BD00300040A5
:101DC00000B50249886000F04FF900BD00300040C6
:101DD00001490860704700000030004010B5012044
:101DE00000F037F810BD000010B5074A5188491CB3
:101DF0008BB2014653801846FEF796F9002902D1AE
:101E0000002000F026F810BD3C00002008B501219C
:101E1000480400F0ABF86846FFF783FC02216846EF
:101E200001801021C17009206946C006FFF71EFC21
:101E300008BD10B509200221C006FFF76EFC10BDD9
:101E400010B509200221C006FFF769FC10BD7047DC
:101E50007047704700487047FFFFFF7F0020C04376
:101E60007047FEE77047000030B5837801210278A3
:101E7000002B15D094080E4BA400E4182368920799
:101E8000D20EFF259540AB434578AD072D0E95400A
:101E90002B4323600078C006C00E8140054804E053
:101EA000D006C00E814003488030016030BD000084
:101EB00000E400E000E100E0004870477801002005
:101EC000242070470949002807D0012807D002289C
:101ED00007D0032807D0064870470878704748782D
:101EE000704788787047C8787047000078010020F4
:101EF000FFFFFF7F03B501990F4AC9B2030000F04D
:101F0000BBFD050406080A0C170011700EE05170A5
:101F10000CE091700AE0D17008E0684680881028D3
:101F200004D269464000C9888018818000200CBD19
:101F30000020C0430CBD00007801002000B5012046
:101F4000FFF7FAFE0128FAD000BD704710B500F087
:101F5000DFFA00F0E3FBFFF77AFF00F0DFFC03207D
:101F6000FFF7EAFDFFF7F2FE10BD0000044A00296A
:101F7000516901D0014300E0814351617047000085
:101F800000100240044A0029D16901D0014300E059
:101F90008143D1617047000000100240044A0029CB
:101FA000116901D0014300E08143116170470000D5
:101FB0000010024042090A49012A0AD0022A0AD026
:101FC000496AC206D20E01209040014205D001208C
:101FD00070470968F5E70021F3E70020704700002B
:101FE0000010024000B500F01DF804494968044A99
:101FF0000906090F515CC84000BD000000100240F6
:10200000B101002000B5FFF7EDFF04494968044A1B
:102010004905490F515CC84000BD00000010024056
:10202000B1010020074841680C20014006480429FE
:1020300004D0082903D00C2900D104487047044873
:10204000704700000010024000127A00409C00001F
:10205000006CDC0203494A6A5208520002434A6299
:10206000704700000010024000B50220FFF764FE38
:102070000128FAD000BD000070B50024074D07E02C
:1020800049194A88C1B24020FFF718FE641CA4B267
:10209000A100685A0028F3D170BD00001C3100086F
:1020A00070B50024084D07E049194A88C1B24020A4
:1020B000FFF704FE641CA4B2A100685A0028F3D103
:1020C00000F00CFB70BD0000F830000838B50024AB
:1020D000684604806A4601214020FFF77DFD68467E
:1020E0000088C10401D501240AE0410708D4C106D3
:1020F00001D5022404E0800701D5032400E0042474
:10210000204638BD08B50021684601806A46042192
:102110004020FFF761FD68460088C006400E08BDFC
:1021200008B50021684601806A4605214020FFF776
:1021300053FD6846008808BD08B500216846018047
:102140006A4644214020FFF747FD6846008808BDE5
:102150000048704740000020FF20393070470000E1
:1021600008B50021684601806A4604214020FFF737
:1021700033FD684600884005400F052803D2034917
:102180004000085A08BD402008BD0000EE3000089D
:1021900070B5002500F06AF8002614A000F05CFC81
:1021A000184C06E00019428817A000F055FC761C78
:1021B000B6B2B000215A0029F4D107E009194A88C3
:1021C000C1B24020FFF77AFD6D1CADB2A900605A84
:1021D0000028F3D1FF20F530FEF7E3FFFFF74CFFB7
:1021E000FEF7FAFBFFF718F970BD00007261646139
:1021F0007220666C6173682076616C75653A0D0AB1
:102200000000000040000020253032583D253034C9
:10221000580D0A0070B50024074D07E049194A8897
:10222000C1B24020FFF74AFD641CA4B2A100685A65
:102230000028F3D170BD00004000002010B500223E
:10224000094B0BE0052A07D3844205D19000C01842
:102250004180FEF78BFC10BD521C92B294001C5BB7
:10226000002CEFD110BD00004000002070B500230D
:1022700019461648164A03E0062C06D0491C89B2B6
:102280008C00045B002CF7D11AE08C0021184C88DC
:102290000F252C434C8013E000210BE0052907D3C8
:1022A000A54205D1B4188900648809184C8005E05E
:1022B000491C89B28D00455B002DEFD15B1C9BB2A0
:1022C0009E00945B002CE7D170BD00004000002010
:1022D000F830000800240A46014606A000F0BCFBC6
:1022E000E0B2FFF7B5FD641C2404240CF8D0FEF71F
:1022F000C3FBFEE752756E206661696C65643A2027
:1023000066696C65202573206C696E6520256420E4
:102310000D0A0000F8B501210803FFF733FE6846F7
:10232000FFF7FFF90120C0036946088001248C7083
:1023300004200925C870ED062846FFF797F920020A
:10234000694608808C704826CE702846FFF78EF9C3
:102350006002694608808C70CE702846FFF786F9C7
:10236000002209212846FFF7C8F900220F2128463C
:10237000FFF7C3F9002208212846FFF7BEF9F8BD90
:10238000F8B5164D0221284600F065F8144C0126D8
:10239000144F002816D1F8BD284600F0A7F80146D2
:1023A000114A60881154401C80B2104960804988ED
:1023B0004A00824203D87E700020608002E08142A1
:1023C00000D13E700221284600F040F80028E3D1F9
:1023D0000221284600F023F8F8BD0000003001403B
:1023E0009E010020A8010020880400200C0000208D
:1023F000102200290AD0082301290AD002290BD073
:10240000032902D181699943816170478169114330
:10241000FAE781691943F7E781699143F4E7426973
:102420000A43426170470029816902D001221143A9
:1024300001E04908490081617047000010B5024879
:10244000FFF7A6FA10BD0000003001408068084088
:1024500000D001207047C068084000D001207047BC
:102460000223002A06D082691A43826102690A4364
:102470000261704702698A430261816999438161FF
:10248000704700001FB51921684601700221417094
:1024900001248470FFF7E8FCFFF73CFF01210803EB
:1024A000FFF770FD684600F025F8002168460170CE
:1024B00008224180027141718471D30103814281FC
:1024C0000173094C69462046FFF772FA0122022186
:1024D0002046FFF7C5FF00212046FFF789FF0121B5
:1024E0002046FFF7A0FF1FBD0030014072B64068D4
:1024F00062B670470021017041800822027141716B
:10250000012282710181022242810173704770476A
:1025100070B50D487D21C9000068FDF705FE0B4927
:10252000401E88420FD80A4C606103210D1F2846C7
:1025300000F0B0FA0020A0610720206100212846A9
:1025400000F0A8FA70BDFEE7AC010020FFFFFF001D
:1025500000E000E0194801680122114301600168B0
:102560008907FCD5016801221205914301600168C9
:10257000042291430160124A1121116041688908C7
:10258000890041600F4909684906490F11D10E4978
:102590000E4A0968914202D00D4A914209D1416820
:1025A00002221143416041680907890F0229FAD1CB
:1025B0007047094907480860704700000010024052
:1025C0000020024000ED00E000340140D15043CC37
:1025D000D150438C00127A00AC01002010B5FDF7F9
:1025E000B7FFFFF75DFD10BD10B500F0C7FC00F0B0
:1025F000F1F910BD10B50C480168012211430160CA
:1026000041680A4A114041600168094A114001606D
:10261000016801229204914301609F2109048160B5
:10262000FFF798FF10BD0000001002400000FFF00F
:10263000FFFFF6FE00487047180000200420704796
:1026400002480121018010214180704718000020BC
:102650000649002803D0012804D00548704700200F
:10266000085E70470220085E7047000018000020D6
:10267000FFFFFF7F002802D00020C04370470648BC
:102680000022825E09B28A4202D00122031F1A7020
:1026900001800020704700001800002010B50A4C8F
:1026A0002078002804D1FEF7F1FB2070002809D023
:1026B00000202070FFF7C2FEFEF7A2FB4004000CD2
:1026C000FFF7E0FE10BD00001400002010B500214F
:1026D000014800F05DF810BD0004004010B5012174
:1026E000014800F055F810BD0004004010B5094C39
:1026F00001212088401C2080074800F045F82088F0
:10270000522805D3FFF7E2FF00202080FFF7B4FC3A
:1027100010BD00009E010020000400401FB50121F3
:102720000220FFF72FFCFFF77DFC1349FDF7FCFCAF
:10273000441E684600F066F86320019069460C80EC
:102740000020088188700D4C8872204600F032F815
:1027500010206946087301224A738A7303A8FFF7A1
:1027600083FB0121204600F00BF801221146204690
:1027700000F018F81FBD0000A08601000004004012
:1027800002698A430261704702698A4302617047A5
:102790000029016802D00122114301E049084900E3
:1027A00001607047002AC26801D00A4300E08A43F2
:1027B000C260704710B5026803231B029A430B895D
:1027C0001A4302600D4A904202D00D4B984205D147
:1027D00003687024A3438C7823430360904205D19F
:1027E000026B8B7A120A12021A4302634A68C262AF
:1027F000098881620121416110BD0000002C014067
:10280000000400400021C943416000210180018192
:10281000817081727047000008B501218804FFF7BC
:10282000A5FB6846FEF77DFF02216846018028214E
:10283000C17069460148FEF719FF08BD0004004851
:1028400038B501214804FFF791FB0924E406012271
:102850000C212046FEF751FF6846FEF762FF01207B
:10286000000369460880012088701820C87020463F
:10287000FEF7FCFE012203212046FEF73EFF082062
:10288000694608800420C8702046FEF7EFFE38BD78
:1028900010B5074C0221204600F033F8002805D07F
:1028A0000221204600F006F800F06EF810BD00008E
:1028B00000380140416170478269520852000A4362
:1028C0008261704770B50B4E0C46050010D00AE0CF
:1028D000297830466D1C00F099F80121304600F04F
:1028E0000BF80028F9D02046641EA4B20028EFD1CE
:1028F00070BD0000003801408068084000D0012011
:102900007047C068084000D001207047002A026963
:1029100001D00A4300E08A430261704710B586B0D7
:10292000FFF78EFF01210804FFF72CFB1B216846EF
:10293000017401214174817404A8FFF795FA684677
:1029400000F067F87D20C0020090302168460171D8
:10295000002181710172017318214181074C694680
:102960002046FFF766F8012202212046FFF7CEFF3E
:1029700001212046FFF7A0FF06B010BD003801403E
:102980004068C0B27047000010B51048FFF7F8FF6C
:102990000F498A880B780C469B01803C1B199B18B9
:1029A000521C8A8018700020C8708A88402A0CD374
:1029B00001228A700A784A700A78521C0A70D2077B
:1029C000D20F0A708A88CA80888010BD0038014002
:1029D000180600200C488188002914D0C178491CB1
:1029E000C170C1780A290ED301218170017841702C
:1029F0000178491C0170C907C90F01708188C18025
:102A000000218180C170704718060020C9B20160A2
:102A100070474B21C9010160302101710021817192
:102A200001721822428101737047FEE710B5012040
:102A30004004FEF731FD0548FFF7CAF90448016973
:102A40000222114301610349016010BD5555000088
:102A500000300040AAAA00000FB410B503A9044B2F
:102A6000044A029800F048F810BC08BC04B01847AB
:102A7000912F0008C401002030B47446641E2578EC
:102A8000641CAB4200D21D46635D5B00E31830BCA2
:102A9000184700008307FF22DB0E9A408907090EC2
:102AA0009940002808DB830809489B001B18186818
:102AB00090430843186070470007000F08388308E8
:102AC00004489B001B18D86990430843D86170479D
:102AD00000E400E000ED00E002E008C8121F08C1B9
:102AE000002AFAD170477047002001E001C1121F8F
:102AF000002AFBD170470000FFB591B00F46054694
:102B0000002606E025280AD0149A139990476D1CD8
:102B1000761C28780028F5D1304615B0F0BD002489
:102B200000940121F34A029400E004436D1C2B78C9
:102B30000846203B98401042F7D128782A280ED02A
:102B4000022128780246303A092A15D8009A0A2329
:102B50005A43303A80180C436D1C0090F1E701CFC6
:102B60000090002805DA0120400304430098404209
:102B70000090022004436D1C28782E2815D10420D3
:102B8000044368786D1C2A280AD101CF6D1C02907D
:102B90000BE002990A225143303940186D1C029013
:102BA0002878014630390929F3D928786C2810D0C3
:102BB00006DC4C281AD068280ED06A2817D104E009
:102BC000742813D07A2812D110E001204005044364
:102BD0000CE00121090501E0032109050C43697896
:102BE000814203D10120000524186D1C6D1C28783A
:102BF00003906E281ED00CDC632831D004DC002842
:102C00008AD0582811D1B2E064287BD069280CD131
:102C100078E073282DD004DC6F2870D0702804D1A0
:102C2000A7E075286CD078286BD0149A1399904738
:102C3000761C62E06002400F022807D003280AD009
:102C4000042838680AD006603F1D56E03868F1173E
:102C500006604160F8E738680680F5E70670F3E73C
:102C60003878694608740020487404A8039001204D
:102C700003E0386803900020C0433F1D61070FD573
:102C8000002101E00199491C029A0191914213DA55
:102C90008142F7DB019A0399895C0029F2D10BE0AC
:102CA000002101E00199491C01918142FADB019A5E
:102CB0000399895C0029F5D101990098139A401A6B
:102CC00000902146149B00F03BF9019980194618A9
:102CD00007E0039803990078491C0391149A13990B
:102CE00090470198401E0190401CF2D12146149B50
:102CF000139A009800F014F986196D1C09E741E059
:102D000033E034E00A200021049005916002410F75
:102D1000022905D001CFC2179446032905D007E048
:102D2000FF1DFF08FF0003CF06E000B2C217944664
:102D3000042902D140B2C1178C4600226146944555
:102D400006DA0A460021404291418C462D2102E0DC
:102D5000210504D52B216A461176012103E0E10704
:102D600001D02021F7E7019154E00A200BE0102068
:102D700009E010200490002104200443082005915C
:102D8000029003E008200021059104906002410FA9
:102D9000022905D001CF00229446032906D006E07F
:102DA000FF1DFF08FF0003CF8C4603E080B204291B
:102DB00000D1C0B20021019121072BD503997029C0
:102DC00006D0049A1021059B4A401A4305D00EE014
:102DD00040216A461176012108E06146014306D090
:102DE00030216A4611760399517602210191049AA5
:102DF0000821059B4A401A430CD16146014301D189
:102E0000610707D530216A461176012101910299A7
:102E1000491E02910399582904D037A103910FA9A3
:102E20000F910DE039A1F9E76146059B049AFDF782
:102E3000B9FA039B8C469B5C0F9A521E0F9213703B
:102E400061460143F0D10F9807A9081A203003907A
:102E5000600704D5012000048443029801E00120AA
:102E600002900399884201DD401A00E000204118D9
:102E70000290019809180098401A0090E00306D4C7
:102E80002146149B139A009800F05AF886190020E6
:102E9000049008E006A9085C149A139990470498D6
:102EA000401C761C049001998842F3DBE0030CD5AA
:102EB0002146149B139A009800F042F8861904E00A
:102EC000149A302013999047761C0299481E02905C
:102ED0000029F5DC08E00F980F990078491C0F9144
:102EE000149A13999047761C0399481E0390002961
:102EF000F1DCFBE609280100303132333435363756
:102F00003839616263646566000000003031323335
:102F100034353637383941424344454600000000D5
:102F2000F8B5044600251E461746880404D405E07B
:102F300039462020B0476D1C641EF9D52846F8BDDF
:102F4000FFB50446002581B01E46C80301D53027D1
:102F500000E02027880404D505E038460399B047EF
:102F60006D1C641EF9D5284605B0F0BD0249086005
:102F700008680028FCD17047A401002003480168BC
:102F8000002902D00168491E01607047A401002099
:102F900070B5074D044681B22846FFF737FD012181
:102FA0002846FFF7A9FC0028F9D0204670BD000094
:102FB00000380140010403D54004400F78307047C9
:102FC000410403D58004400F70307047810403D55D
:102FD000C004400F68307047C10403D50005400F9E
:102FE00060307047010503D54005400F58307047E9
:102FF000410503D58005400F50307047810503D54A
:10300000C005400F48307047C10503D50006400F8A
:1030100040307047010603D54006400F38307047F6
:10302000410603D58006400F30307047810603D536
:10303000C006400F28307047C10603D50007400F77
:1030400020307047010703D54007400F1830704704
:10305000410703D58007400F10307047810703D523
:10306000C007400F0830704700207047FEF76EFF22
:10307000FFF7D0F8FDF70EFDFFF78AF8FDF712FB1A
:10308000FDF7C4FEFDF720FC04A0FFF7E5FCFDF70B
:1030900047FFFDF775FFFDF71FFCF8E773797374C1
:1030A000656D20696E69742066696E697368656410
:1030B000210D0A000949012808D002280AD0032856
:1030C00003D1022008702D20488070470520087029
:1030D0008E20F9E7032008705A20F5E72C00002025
:1030E000FDFCFBFA040302010100000000004000A7
:1030F0008000000100020004700020106C00808835
:103100006D00008872005006670000006600F0F055
:103110006E00FC03410064C800000000410074C858
:10312000720013066C0090996D00C0997000A02E7B
:103130006E00FC8B6600F0F8670040106900060026
:10314000000000006431000800000020C8010000F9
:10315000EE040008A4320008C8010020A805000001
:10316000E82A0008215202032204041205128E12DA
:103170001932321A6408520A32013267127214503C
:103180000640140742411204324212431450C34411
:103190001220324512462410274713104824204E8F
:1031A0004913204A3487134B124C34993A4D1A4E26
:1031B00046324F125014701751141201521480A845
:1031C0005314020A5434ABAA55125612491257141A
:1031D000FFFF5834DCFE59325A125B12221A5C048B
:1031E000125D2419195E13FF611CEF0162041A635A
:1031F000041A64042266130A6C2490996D13996E64
:1032000014FCBF7014A0327612211206143401048B
:10321000141B02091B0169C213420B140CC0021CCF
:103220000C1005AC1A0D9C1A0E0412151408171474
:1032300014035A173410022032213222122314DCD4
:103240001D24145E1D2514E21C2614641C2714D0B2
:10325000172814D416291CDC152A041A2B041A2C3E
:10326000041A2D041A2E041A2F041272145306671E
:103270001440180114308E411464C84043070218EA
:10328000080108020130750AFA0B165802020210F2
:10329000013B6CDC3C112D01020304047506070898
:0432A0000900000021
:04000005080000B53A
:00000001FF
